:100000000C945D000C9485000C9485000C94850084
:100010000C9485000C9485000C9485000C9485004C
:100020000C9485000C9485000C9485000C9485003C
:100030000C9485000C9485000C9485000C9485002C
:100040000C94DC010C9485000C944C020C94260258
:100050000C9485000C9485000C9485000C9485000C
:100060000C9485000C9485000000000024002700FB
:100070002A0000000000250028002B0004040404CE
:100080000404040402020202020203030303030342
:10009000010204081020408001020408102001021F
:1000A00004081020000000080002010000030407FB
:1000B00000000000000000008A0311241FBECFEFE3
:1000C000D8E0DEBFCDBF11E0A0E0B1E0EEE7F7E0A1
:1000D00002C005900D92A231B107D9F721E0A2E14B
:1000E000B1E001C01D92AA3BB207E1F710E0CDE5F7
:1000F000D0E004C02197FE010E94B703CC35D107A0
:10010000C9F70E947E020C94BD030C940000E6EA3D
:10011000F0E02491E2E9F0E09491EEE7F0E0E49180
:10012000EE23C9F0222339F0233001F1A8F4213065
:1001300019F1223029F1F0E0EE0FFF1FEE58FF4FCA
:10014000A591B4912FB7F894EC91811126C09095A8
:100150009E239C932FBF08952730A9F02830C9F023
:10016000243049F7209180002F7D03C0209180002A
:100170002F7720938000DFCF24B52F7724BDDBCFEE
:1001800024B52F7DFBCF2091B0002F772093B000B6
:10019000D2CF2091B0002F7DF9CF9E2BDACFAF9236
:1001A000BF92CF92DF92EF92FF920F931F93CF9364
:1001B000DF936C017B018B01040F151FEB015E01C6
:1001C000AE18BF08C017D10759F06991D601ED915B
:1001D000FC910190F081E02DC6010995892B79F7FA
:1001E000C501DF91CF911F910F91FF90EF90DF90AC
:1001F000CF90BF90AF900895FC01538D448D252F73
:1002000030E0842F90E0821B930B541710F0CF96B0
:10021000089501970895FC01918D828D981761F0E2
:10022000A28DAE0FBF2FB11D5D968C91928D9F5FF9
:100230009F73928F90E008958FEF9FEF0895FC01D8
:10024000918D828D981731F0828DE80FF11D858D8B
:1002500090E008958FEF9FEF0895FC01918D228D1E
:10026000892F90E0805C9F4F821B91098F739927A3
:10027000089584E191E00E942D0121E0892B09F489
:1002800020E0822F089580E090E0892B29F00E94E1
:10029000390181110C9400000895FC01A48DA80F70
:1002A000B92FB11DA35ABF4F2C91848D90E00196B8
:1002B0008F739927848FA689B7892C93A089B189D8
:1002C0008C91837080648C93938D848D981306C079
:1002D0000288F389E02D80818F7D80830895EF92DD
:1002E000FF920F931F93CF93DF93EC0181E0888FF0
:1002F0009B8D8C8D98131AC0E889F989808185FFC0
:1003000015C09FB7F894EE89FF896083E889F98961
:1003100080818370806480839FBF81E090E0DF9163
:10032000CF911F910F91FF90EF900895F62E0B8DB6
:1003300010E00F5F1F4F0F731127E02E8C8D8E1171
:100340000CC00FB607FCFACFE889F989808185FFD8
:10035000F5CFCE010E944D01F1CFEB8DEC0FFD2FBB
:10036000F11DE35AFF4FF0829FB7F8940B8FEA8993
:10037000FB8980818062CFCFCF93DF93EC01888DA2
:100380008823B9F0AA89BB89E889F9898C9185FD10
:1003900003C0808186FD0DC00FB607FCF7CF8C919E
:1003A00085FFF2CF808185FFEDCFCE010E944D0108
:1003B000E9CFDF91CF9108951F920F920FB60F9260
:1003C00011242F933F938F939F93AF93BF9380916B
:1003D000B6019091B701A091B801B091B9013091E7
:1003E000B50123E0230F2D3758F50196A11DB11D4E
:1003F0002093B5018093B6019093B701A093B80103
:10040000B093B9018091B1019091B201A091B30173
:10041000B091B4010196A11DB11D8093B1019093DB
:10042000B201A093B301B093B401BF91AF919F917A
:100430008F913F912F910F900FBE0F901F901895A5
:1004400026E8230F0296A11DB11DD2CF1F920F9255
:100450000FB60F9211242F933F934F935F936F9397
:100460007F938F939F93AF93BF93EF93FF9384E119
:1004700091E00E944D01FF91EF91BF91AF919F914B
:100480008F917F916F915F914F913F912F910F903D
:100490000FBE0F901F9018951F920F920FB60F92DC
:1004A00011242F938F939F93EF93FF93E091240157
:1004B000F09125018081E0912A01F0912B0182FDCC
:1004C0001BC0908180912D018F5F8F7320912E0131
:1004D000821741F0E0912D01F0E0EC5EFE4F958F28
:1004E00080932D01FF91EF919F918F912F910F900C
:1004F0000FBE0F901F9018958081F4CF789484B52B
:10050000826084BD84B5816084BD85B5826085BD0F
:1005100085B5816085BD80916E00816080936E009D
:10052000109281008091810082608093810080918F
:100530008100816080938100809180008160809340
:1005400080008091B10084608093B1008091B00000
:1005500081608093B00080917A00846080937A00FB
:1005600080917A00826080937A0080917A00816025
:1005700080937A0080917A00806880937A0010924C
:10058000C100E0912401F091250182E08083E09197
:100590002001F09121011082E0912201F0912301CC
:1005A0008FEC808310922C01E0912801F0912901B9
:1005B00086E08083E0912601F091270180818061AF
:1005C0008083E0912601F0912701808188608083FB
:1005D000E0912601F0912701808180688083E0917D
:1005E0002601F091270180818F7D8083E2E9F0E090
:1005F0002491EEE7F0E08491882399F090E0880F51
:10060000991FFC01E859FF4FA591B491FC01EE58E8
:10061000FF4F859194918FB7F894EC91E22BEC9376
:100620008FBF1092130110921201C0E0D0E001E0E0
:1006300010E084E191E00E942D01892B91F184E189
:1006400091E00E940B01BC01209112013091130135
:100650008E34910539F442E02130310509F041E052
:1006600090E04AC086349105D9F52130310569F50D
:1006700043E090E005C040E090E06A30710519F079
:100680006D307105F9F4309313012093120181E06C
:100690002230310521F02430310519F480E00E9428
:1006A0008700209731F20E943901882311F20E94BD
:1006B0000000BFCF41E090E06F347105F1F62430C7
:1006C000310549F0242F392FDECF44E023303105A6
:1006D00081F241E0CECF1093130100931201E1CFDC
:1006E00041E090E02130310509F440E06F347105BC
:1006F00019F422303105F1F223303105E9F66F3477
:10070000710509F0B8CF109213011092120130E078
:1007100020E0C1CFE4E1F1E01382128288EE93E0A1
:10072000A0E0B0E084839583A683B78384E091E062
:100730009183808385EC90E09587848784EC90E0BA
:100740009787868780EC90E0918B808B81EC90E09E
:10075000938B828B82EC90E0958B848B86EC90E07F
:10076000978B868B118E128E138E148E0895EE0F3A
:0E077000FF1F0590F491E02D0994F894FFCF3F
:10077E00000000006F01CF00FC00BC012D010B0139
:02078E001F0149
:00000001FF
