:100000000C945D000C9485000C9485000C94850084
:100010000C9485000C9485000C9485000C9485004C
:100020000C9485000C9485000C9485000C9485003C
:100030000C9485000C9485000C9485000C9485002C
:100040000C9434020C9485000C9402020C94DC0194
:100050000C9485000C9485000C9485000C9485000C
:100060000C9485000C9485000000000024002700FB
:100070002A0000000000250028002B0004040404CE
:100080000404040402020202020203030303030342
:10009000010204081020408001020408102001021F
:1000A00004081020000000080002010000030407FB
:1000B0000000000000000000080411241FBECFEF64
:1000C000D8E0DEBFCDBF11E0A0E0B1E0E8E2F9E0AA
:1000D00002C005900D92A231B107D9F721E0A2E14B
:1000E000B1E001C01D92AE3BB207E1F710E0CDE5F3
:1000F000D0E004C02197FE010E948C04CC35D107CA
:10010000C9F70E947E020C9492040C940000EBEA62
:10011000F0E02491E7E9F0E09491E3E8F0E0E49185
:10012000EE23C9F0222339F0233001F1A8F4213065
:1001300019F1223029F1F0E0EE0FFF1FEE58FF4FCA
:10014000A591B4912FB7F894EC91811126C09095A8
:100150009E239C932FBF08952730A9F02830C9F023
:10016000243049F7209180002F7D03C0209180002A
:100170002F7720938000DFCF24B52F7724BDDBCFEE
:1001800024B52F7DFBCF2091B0002F772093B000B6
:10019000D2CF2091B0002F7DF9CF9E2BDACFAF9236
:1001A000BF92CF92DF92EF92FF920F931F93CF9364
:1001B000DF936C017B018B01040F151FEB015E01C6
:1001C000AE18BF08C017D10759F06991D601ED915B
:1001D000FC910190F081E02DC6010995892B79F7FA
:1001E000C501DF91CF911F910F91FF90EF90DF90AC
:1001F000CF90BF90AF900895FC01538D448D252F73
:1002000030E0842F90E0821B930B541710F0CF96B0
:10021000089501970895FC01918D828D981761F0E2
:10022000A28DAE0FBF2FB11D5D968C91928D9F5FF9
:100230009F73928F90E008958FEF9FEF0895FC01D8
:10024000918D828D981731F0828DE80FF11D858D8B
:1002500090E008958FEF9FEF0895FC01918D228D1E
:10026000892F90E0805C9F4F821B91098F739927A3
:10027000089581E291E00E942D0121E0892B09F48B
:1002800020E0822F089580E090E0892B29F00E94E1
:10029000390181110C9400000895FC01A48DA80F70
:1002A000B92FB11DA35ABF4F2C91848D90E00196B8
:1002B0008F739927848FA689B7892C93A089B189D8
:1002C0008C91837080648C93938D848D981306C079
:1002D0000288F389E02D80818F7D80830895EF92DD
:1002E000FF920F931F93CF93DF93EC0181E0888FF0
:1002F0009B8D8C8D98131AC0E889F989808185FFC0
:1003000015C09FB7F894EE89FF896083E889F98961
:1003100080818370806480839FBF81E090E0DF9163
:10032000CF911F910F91FF90EF900895F62E0B8DB6
:1003300010E00F5F1F4F0F731127E02E8C8D8E1171
:100340000CC00FB607FCFACFE889F989808185FFD8
:10035000F5CFCE010E944D01F1CFEB8DEC0FFD2FBB
:10036000F11DE35AFF4FF0829FB7F8940B8FEA8993
:10037000FB8980818062CFCFCF93DF93EC01888DA2
:100380008823B9F0AA89BB89E889F9898C9185FD10
:1003900003C0808186FD0DC00FB607FCF7CF8C919E
:1003A00085FFF2CF808185FFEDCFCE010E944D0108
:1003B000E9CFDF91CF9108951F920F920FB60F9260
:1003C00011242F933F934F935F936F937F938F935A
:1003D0009F93AF93BF93EF93FF9381E291E00E94CD
:1003E0004D01FF91EF91BF91AF919F918F917F91BF
:1003F0006F915F914F913F912F910F900FBE0F9092
:100400001F9018951F920F920FB60F9211242F93E1
:100410008F939F93EF93FF93E0913101F09132011D
:100420008081E0913701F091380182FD1BC09081FD
:1004300080913A018F5F8F7320913B01821741F0C9
:10044000E0913A01F0E0EF5DFE4F958F80933A0125
:10045000FF91EF919F918F912F910F900FBE0F9071
:100460001F9018958081F4CF1F920F920FB60F92B4
:1004700011242F933F938F939F93AF93BF938091BA
:10048000170190911801A0911901B0911A013091B2
:10049000160123E0230F2D3758F50196A11DB11D3C
:1004A000209316018093170190931801A0931901CE
:1004B000B0931A018091120190911301A09114013F
:1004C000B09115010196A11DB11D80931201909369
:1004D0001301A0931401B0931501BF91AF919F91A7
:1004E0008F913F912F910F900FBE0F901F901895F5
:1004F00026E8230F0296A11DB11DD2CF789484B5B2
:10050000826084BD84B5816084BD85B5826085BD0F
:1005100085B5816085BD80916E00816080936E009D
:10052000109281008091810082608093810080918F
:100530008100816080938100809180008160809340
:1005400080008091B10084608093B1008091B00000
:1005500081608093B00080917A00846080937A00FB
:1005600080917A00826080937A0080917A00816025
:1005700080937A0080917A00806880937A0010924C
:10058000C100E0913101F091320182E08083E0917D
:100590002D01F0912E011082E0912F01F091300198
:1005A0008FEC808310923901E0913501F091360192
:1005B00086E08083E0913301F09134018081806195
:1005C0008083E0913301F0913401808188608083E1
:1005D000E0913301F0913401808180688083E09163
:1005E0003301F091340180818F7D8083109220014E
:1005F00010921F012FB7F894809117019091180164
:10060000A0911901B0911A012FBF80931B01909303
:100610001C01A0931D01B0931E01E7E9F0E02491B5
:10062000E3E8F0E08491882399F090E0880F991F27
:10063000FC01E859FF4FA591B491FC01EE58FF4F22
:10064000859194918FB7F894EC91E22BEC938FBF46
:1006500082E4982ECC24CA9493E0D92EE12CF12C7C
:10066000C0E0D0E001E010E081E291E00E942D01C5
:10067000892BA9F181E291E00E940B01BC0120913C
:100680001F01309120018E34910539F442E0213070
:10069000310509F041E090E0ADC08634910509F0E4
:1006A0009DC02130310509F081C043E090E005C0D4
:1006B00040E090E06A30710521F06D30710509F07D
:1006C00085C03093200120931F0181E02230310545
:1006D00021F02430310519F480E00E9487002FB703
:1006E000F8948091170190911801A0911901B0918F
:1006F0001A012FBF40911B0150911C0160911D01F7
:1007000070911E01841B950BA60BB70B8938934182
:10071000A105B10508F43FC090927C0080917A0059
:10072000806480937A0080917A0086FDFCCFA0904F
:100730007800B09079006FEF81E291E00E946F0144
:1007400061E081E291E00E946F012DEF30E0D50180
:100750000E948504A70196010E943504622F81E260
:1007600091E00E946F016EEF81E291E00E946F01C3
:100770002FB7F8948091170190911801A091190159
:10078000B0911A012FBF80931B0190931C01A0937D
:100790001D01B0931E01209709F466CF0E94390114
:1007A000882309F461CF0E9400005ECF44E023302B
:1007B000310509F47BCF41E079CF41E090E06F341F
:1007C000710509F077CF2430310519F0242F392F26
:1007D00078CF1093200100931F0181CF41E090E07A
:1007E0002130310509F440E06F34710519F42230ED
:1007F000310519F32330310511F76F34710509F014
:1008000057CF1092200110921F0130E020E061CFFD
:10081000E1E2F1E01382128288EE93E0A0E0B0E022
:1008200084839583A683B78384E091E0918380835A
:1008300085EC90E09587848784EC90E097878687A5
:1008400080EC90E0918B808B81EC90E0938B828B9D
:1008500082EC90E0958B848B86EC90E0978B868B76
:10086000118E128E138E148E0895052E97FB1EF492
:1008700000940E944C0457FD07D00E94540407FCCA
:1008800003D04EF40C944C0450954095309521952E
:100890003F4F4F4F5F4F08959095809570956195AC
:1008A0007F4F8F4F9F4F0895A1E21A2EAA1BBB1BAB
:1008B000FD010DC0AA1FBB1FEE1FFF1FA217B3072C
:1008C000E407F50720F0A21BB30BE40BF50B661F42
:1008D000771F881F991F1A9469F760957095809506
:1008E00090959B01AC01BD01CF010895A29FB0017D
:1008F000B39FC001A39F700D811D1124911DB29F54
:10090000700D811D1124911D08950E947604B7FF7A
:100910000895821B930B0895EE0FFF1F0590F4912D
:08092000E02D0994F894FFCFCB
:10092800000000006F01CF00FC00BC012D010B018D
:020938001F019D
:00000001FF
